:100000000C942A000C9434000C9434000C943400AA
:100010000C9434000C9434000C9434000C94340090
:100020000C9434000C9434000C9434000C94340080
:100030000C9434000C9434000C9434000C94340070
:100040000C9434000C9434000C9434000C94340060
:100050000C94340011241FBECFE5D4E0DEBFCDBF29
:100060000E944C000C9456000C94000087B3806BE7
:1000700087BBBE988DB183658DB9089587B38F74A2
:1000800087BBBE9A6E9A08958FB98EB18FB10895CD
:100090008FB9779BFECF08950E9436008FEF84BB07
:1000A00015BA83E58FB9779BFECFFFCFF894FFCFCA
:00000001FF
