:100000000C942A000C9434000C9434000C943400AA
:100010000C9434000C9434000C9434000C94340090
:100020000C9434000C9434000C9434000C94340080
:100030000C9434000C9434000C9434000C94340070
:100040000C9434000C9434000C9434000C94340060
:100050000C94340011241FBECFE5D4E0DEBFCDBF29
:100060000E944B000C9452000C94000087B3806BEC
:1000700087BBBE9883E58DB9C49A089587B38F7402
:1000800087BBBE9A6E9A08958FB9C498779BFECFAE
:100090008FB1C49A08950E94360014BA83E50E9475
:0800A0004400FFCFF894FFCFEC
:00000001FF
